{
  "_format": "hh-sol-artifact-1",
  "contractName": "SupportContract",
  "sourceName": "contracts/SupportContract.sol",
  "abi": [
    {
      "inputs": [],
      "stateMutability": "nonpayable",
      "type": "constructor"
    },
    {
      "anonymous": false,
      "inputs": [
        {
          "indexed": true,
          "internalType": "address",
          "name": "from",
          "type": "address"
        },
        {
          "indexed": false,
          "internalType": "uint256",
          "name": "timestamp",
          "type": "uint256"
        },
        {
          "indexed": false,
          "internalType": "string",
          "name": "name",
          "type": "string"
        },
        {
          "indexed": false,
          "internalType": "string",
          "name": "message",
          "type": "string"
        }
      ],
      "name": "SupportMessageCreated",
      "type": "event"
    },
    {
      "inputs": [],
      "name": "clearSupportMessages",
      "outputs": [],
      "stateMutability": "nonpayable",
      "type": "function"
    },
    {
      "inputs": [],
      "name": "getAllSupportMessages",
      "outputs": [
        {
          "components": [
            {
              "internalType": "address",
              "name": "sender",
              "type": "address"
            },
            {
              "internalType": "uint256",
              "name": "timestamp",
              "type": "uint256"
            },
            {
              "internalType": "string",
              "name": "name",
              "type": "string"
            },
            {
              "internalType": "string",
              "name": "message",
              "type": "string"
            }
          ],
          "internalType": "struct SupportContract.SupportMessage[]",
          "name": "",
          "type": "tuple[]"
        }
      ],
      "stateMutability": "view",
      "type": "function"
    },
    {
      "inputs": [],
      "name": "getBalance",
      "outputs": [
        {
          "internalType": "uint256",
          "name": "",
          "type": "uint256"
        }
      ],
      "stateMutability": "view",
      "type": "function"
    },
    {
      "inputs": [],
      "name": "owner",
      "outputs": [
        {
          "internalType": "address payable",
          "name": "",
          "type": "address"
        }
      ],
      "stateMutability": "view",
      "type": "function"
    },
    {
      "inputs": [],
      "name": "ownerWithdraw",
      "outputs": [],
      "stateMutability": "nonpayable",
      "type": "function"
    },
    {
      "inputs": [
        {
          "internalType": "string",
          "name": "_name",
          "type": "string"
        },
        {
          "internalType": "string",
          "name": "_message",
          "type": "string"
        }
      ],
      "name": "showSupport",
      "outputs": [],
      "stateMutability": "payable",
      "type": "function"
    },
    {
      "inputs": [
        {
          "internalType": "uint256",
          "name": "",
          "type": "uint256"
        }
      ],
      "name": "supportMessages",
      "outputs": [
        {
          "internalType": "address",
          "name": "sender",
          "type": "address"
        },
        {
          "internalType": "uint256",
          "name": "timestamp",
          "type": "uint256"
        },
        {
          "internalType": "string",
          "name": "name",
          "type": "string"
        },
        {
          "internalType": "string",
          "name": "message",
          "type": "string"
        }
      ],
      "stateMutability": "view",
      "type": "function"
    },
    {
      "inputs": [
        {
          "internalType": "address payable",
          "name": "newOwner",
          "type": "address"
        }
      ],
      "name": "transferOwnership",
      "outputs": [],
      "stateMutability": "nonpayable",
      "type": "function"
    }
  ],
  "bytecode": "0x608060405234801561001057600080fd5b50336000806101000a81548173ffffffffffffffffffffffffffffffffffffffff021916908373ffffffffffffffffffffffffffffffffffffffff1602179055506114f9806100606000396000f3fe60806040526004361061007b5760003560e01c80635215d6a91161004e5780635215d6a91461011e5780638da5cb5b14610135578063e34fa47014610160578063f2fde38b1461018b5761007b565b806312065fe01461008057806313178c66146100ab5780634311de8f146100c75780634e03d195146100de575b600080fd5b34801561008c57600080fd5b506100956101b4565b6040516100a29190611063565b60405180910390f35b6100c560048036038101906100c09190610bfc565b6101bc565b005b3480156100d357600080fd5b506100dc610344565b005b3480156100ea57600080fd5b5061010560048036038101906101009190610c68565b61047e565b6040516101159493929190610f2e565b60405180910390f35b34801561012a57600080fd5b506101336105ee565b005b34801561014157600080fd5b5061014a61068c565b6040516101579190610f13565b60405180910390f35b34801561016c57600080fd5b506101756106b0565b6040516101829190610f81565b60405180910390f35b34801561019757600080fd5b506101b260048036038101906101ad9190610bd3565b610893565b005b600047905090565b600034116101ff576040517f08c379a00000000000000000000000000000000000000000000000000000000081526004016101f690610fc3565b60405180910390fd5b600160405180608001604052803373ffffffffffffffffffffffffffffffffffffffff16815260200142815260200184815260200183815250908060018154018082558091505060019003906000526020600020906004020160009091909190915060008201518160000160006101000a81548173ffffffffffffffffffffffffffffffffffffffff021916908373ffffffffffffffffffffffffffffffffffffffff1602179055506020820151816001015560408201518160020190805190602001906102ce9291906109d4565b5060608201518160030190805190602001906102eb9291906109d4565b5050503373ffffffffffffffffffffffffffffffffffffffff167f6fe6ba88987a6c87eda2718237e60f0109fddf3ff8915d10370a6d399a1e2a294284846040516103389392919061107e565b60405180910390a25050565b60008054906101000a900473ffffffffffffffffffffffffffffffffffffffff1673ffffffffffffffffffffffffffffffffffffffff163373ffffffffffffffffffffffffffffffffffffffff16146103d2576040517f08c379a00000000000000000000000000000000000000000000000000000000081526004016103c990610fe3565b60405180910390fd5b60004711610415576040517f08c379a000000000000000000000000000000000000000000000000000000000815260040161040c90611003565b60405180910390fd5b60008054906101000a900473ffffffffffffffffffffffffffffffffffffffff1673ffffffffffffffffffffffffffffffffffffffff166108fc479081150290604051600060405180830381858888f1935050505015801561047b573d6000803e3d6000fd5b50565b6001818154811061048e57600080fd5b90600052602060002090600402016000915090508060000160009054906101000a900473ffffffffffffffffffffffffffffffffffffffff16908060010154908060020180546104dd9061120f565b80601f01602080910402602001604051908101604052809291908181526020018280546105099061120f565b80156105565780601f1061052b57610100808354040283529160200191610556565b820191906000526020600020905b81548152906001019060200180831161053957829003601f168201915b50505050509080600301805461056b9061120f565b80601f01602080910402602001604051908101604052809291908181526020018280546105979061120f565b80156105e45780601f106105b9576101008083540402835291602001916105e4565b820191906000526020600020905b8154815290600101906020018083116105c757829003601f168201915b5050505050905084565b60008054906101000a900473ffffffffffffffffffffffffffffffffffffffff1673ffffffffffffffffffffffffffffffffffffffff163373ffffffffffffffffffffffffffffffffffffffff161461067c576040517f08c379a000000000000000000000000000000000000000000000000000000000815260040161067390611043565b60405180910390fd5b6001600061068a9190610a5a565b565b60008054906101000a900473ffffffffffffffffffffffffffffffffffffffff1681565b60606001805480602002602001604051908101604052809291908181526020016000905b8282101561088a57838290600052602060002090600402016040518060800160405290816000820160009054906101000a900473ffffffffffffffffffffffffffffffffffffffff1673ffffffffffffffffffffffffffffffffffffffff1673ffffffffffffffffffffffffffffffffffffffff168152602001600182015481526020016002820180546107679061120f565b80601f01602080910402602001604051908101604052809291908181526020018280546107939061120f565b80156107e05780601f106107b5576101008083540402835291602001916107e0565b820191906000526020600020905b8154815290600101906020018083116107c357829003601f168201915b505050505081526020016003820180546107f99061120f565b80601f01602080910402602001604051908101604052809291908181526020018280546108259061120f565b80156108725780601f1061084757610100808354040283529160200191610872565b820191906000526020600020905b81548152906001019060200180831161085557829003601f168201915b505050505081525050815260200190600101906106d4565b50505050905090565b60008054906101000a900473ffffffffffffffffffffffffffffffffffffffff1673ffffffffffffffffffffffffffffffffffffffff163373ffffffffffffffffffffffffffffffffffffffff1614610921576040517f08c379a000000000000000000000000000000000000000000000000000000000815260040161091890611023565b60405180910390fd5b600073ffffffffffffffffffffffffffffffffffffffff168173ffffffffffffffffffffffffffffffffffffffff161415610991576040517f08c379a000000000000000000000000000000000000000000000000000000000815260040161098890610fa3565b60405180910390fd5b806000806101000a81548173ffffffffffffffffffffffffffffffffffffffff021916908373ffffffffffffffffffffffffffffffffffffffff16021790555050565b8280546109e09061120f565b90600052602060002090601f016020900481019282610a025760008555610a49565b82601f10610a1b57805160ff1916838001178555610a49565b82800160010185558215610a49579182015b82811115610a48578251825591602001919060010190610a2d565b5b509050610a569190610a7e565b5090565b5080546000825560040290600052602060002090810190610a7b9190610a9b565b50565b5b80821115610a97576000816000905550600101610a7f565b5090565b5b80821115610afd57600080820160006101000a81549073ffffffffffffffffffffffffffffffffffffffff02191690556001820160009055600282016000610ae49190610b01565b600382016000610af49190610b01565b50600401610a9c565b5090565b508054610b0d9061120f565b6000825580601f10610b1f5750610b3e565b601f016020900490600052602060002090810190610b3d9190610a7e565b5b50565b6000610b54610b4f846110e8565b6110c3565b905082815260208101848484011115610b6c57600080fd5b610b778482856111cd565b509392505050565b600081359050610b8e81611495565b92915050565b600082601f830112610ba557600080fd5b8135610bb5848260208601610b41565b91505092915050565b600081359050610bcd816114ac565b92915050565b600060208284031215610be557600080fd5b6000610bf384828501610b7f565b91505092915050565b60008060408385031215610c0f57600080fd5b600083013567ffffffffffffffff811115610c2957600080fd5b610c3585828601610b94565b925050602083013567ffffffffffffffff811115610c5257600080fd5b610c5e85828601610b94565b9150509250929050565b600060208284031215610c7a57600080fd5b6000610c8884828501610bbe565b91505092915050565b6000610c9d8383610e8b565b905092915050565b610cae81611191565b82525050565b610cbd8161117f565b82525050565b610ccc8161117f565b82525050565b6000610cdd82611129565b610ce7818561114c565b935083602082028501610cf985611119565b8060005b85811015610d355784840389528151610d168582610c91565b9450610d218361113f565b925060208a01995050600181019050610cfd565b50829750879550505050505092915050565b6000610d5282611134565b610d5c818561115d565b9350610d6c8185602086016111dc565b610d75816112d0565b840191505092915050565b6000610d8b82611134565b610d95818561116e565b9350610da58185602086016111dc565b610dae816112d0565b840191505092915050565b6000610dc6601a8361116e565b9150610dd1826112e1565b602082019050919050565b6000610de960238361116e565b9150610df48261130a565b604082019050919050565b6000610e0c60318361116e565b9150610e1782611359565b604082019050919050565b6000610e2f60228361116e565b9150610e3a826113a8565b604082019050919050565b6000610e52602e8361116e565b9150610e5d826113f7565b604082019050919050565b6000610e7560338361116e565b9150610e8082611446565b604082019050919050565b6000608083016000830151610ea36000860182610cb4565b506020830151610eb66020860182610ef5565b5060408301518482036040860152610ece8282610d47565b91505060608301518482036060860152610ee88282610d47565b9150508091505092915050565b610efe816111c3565b82525050565b610f0d816111c3565b82525050565b6000602082019050610f286000830184610ca5565b92915050565b6000608082019050610f436000830187610cc3565b610f506020830186610f04565b8181036040830152610f628185610d80565b90508181036060830152610f768184610d80565b905095945050505050565b60006020820190508181036000830152610f9b8184610cd2565b905092915050565b60006020820190508181036000830152610fbc81610db9565b9050919050565b60006020820190508181036000830152610fdc81610ddc565b9050919050565b60006020820190508181036000830152610ffc81610dff565b9050919050565b6000602082019050818103600083015261101c81610e22565b9050919050565b6000602082019050818103600083015261103c81610e45565b9050919050565b6000602082019050818103600083015261105c81610e68565b9050919050565b60006020820190506110786000830184610f04565b92915050565b60006060820190506110936000830186610f04565b81810360208301526110a58185610d80565b905081810360408301526110b98184610d80565b9050949350505050565b60006110cd6110de565b90506110d98282611241565b919050565b6000604051905090565b600067ffffffffffffffff821115611103576111026112a1565b5b61110c826112d0565b9050602081019050919050565b6000819050602082019050919050565b600081519050919050565b600081519050919050565b6000602082019050919050565b600082825260208201905092915050565b600082825260208201905092915050565b600082825260208201905092915050565b600061118a826111a3565b9050919050565b600061119c826111a3565b9050919050565b600073ffffffffffffffffffffffffffffffffffffffff82169050919050565b6000819050919050565b82818337600083830152505050565b60005b838110156111fa5780820151818401526020810190506111df565b83811115611209576000848401525b50505050565b6000600282049050600182168061122757607f821691505b6020821081141561123b5761123a611272565b5b50919050565b61124a826112d0565b810181811067ffffffffffffffff82111715611269576112686112a1565b5b80604052505050565b7f4e487b7100000000000000000000000000000000000000000000000000000000600052602260045260246000fd5b7f4e487b7100000000000000000000000000000000000000000000000000000000600052604160045260246000fd5b6000601f19601f8301169050919050565b7f496e76616c6964206e6577206f776e657220616464726573732e000000000000600082015250565b7f596f752063616e6e6f742073686f7720737570706f727420776974682030204560008201527f5448210000000000000000000000000000000000000000000000000000000000602082015250565b7f506c65617365206f6e6c792074686520636f6e7472616374206f776e6572206360008201527f616e20776974686472617720746970732e000000000000000000000000000000602082015250565b7f4e6f2066756e647320617661696c61626c6520666f722077697468647261776160008201527f6c2e000000000000000000000000000000000000000000000000000000000000602082015250565b7f4f6e6c79207468652063757272656e74206f776e65722063616e207472616e7360008201527f666572206f776e6572736869702e000000000000000000000000000000000000602082015250565b7f4f6e6c792074686520636f6e7472616374206f776e65722063616e20636c656160008201527f7220737570706f7274206d657373616765732e00000000000000000000000000602082015250565b61149e81611191565b81146114a957600080fd5b50565b6114b5816111c3565b81146114c057600080fd5b5056fea26469706673582212206e6e7867466cda0cc1b416a5434b387ac1fd7770dddee6e46ce80f130e8e65a664736f6c63430008040033",
  "linkReferences": {},
  "deployedLinkReferences": {}
}