{
  "_format": "hh-sol-artifact-1",
  "contractName": "SupportContract",
  "sourceName": "contracts/SupportContract.sol",
  "abi": [
    {
      "inputs": [],
      "stateMutability": "nonpayable",
      "type": "constructor"
    },
    {
      "anonymous": false,
      "inputs": [
        {
          "indexed": true,
          "internalType": "address",
          "name": "from",
          "type": "address"
        },
        {
          "indexed": false,
          "internalType": "uint256",
          "name": "timestamp",
          "type": "uint256"
        },
        {
          "indexed": false,
          "internalType": "string",
          "name": "name",
          "type": "string"
        },
        {
          "indexed": false,
          "internalType": "string",
          "name": "message",
          "type": "string"
        }
      ],
      "name": "SupportMessageCreated",
      "type": "event"
    },
    {
      "inputs": [],
      "name": "getAllSupportMessages",
      "outputs": [
        {
          "components": [
            {
              "internalType": "address",
              "name": "sender",
              "type": "address"
            },
            {
              "internalType": "uint256",
              "name": "timestamp",
              "type": "uint256"
            },
            {
              "internalType": "string",
              "name": "name",
              "type": "string"
            },
            {
              "internalType": "string",
              "name": "message",
              "type": "string"
            }
          ],
          "internalType": "struct SupportContract.SupportMessage[]",
          "name": "",
          "type": "tuple[]"
        }
      ],
      "stateMutability": "view",
      "type": "function"
    },
    {
      "inputs": [],
      "name": "getTotalTips",
      "outputs": [
        {
          "internalType": "uint256",
          "name": "",
          "type": "uint256"
        }
      ],
      "stateMutability": "view",
      "type": "function"
    },
    {
      "inputs": [],
      "name": "owner",
      "outputs": [
        {
          "internalType": "address payable",
          "name": "",
          "type": "address"
        }
      ],
      "stateMutability": "view",
      "type": "function"
    },
    {
      "inputs": [],
      "name": "ownerWithdraw",
      "outputs": [],
      "stateMutability": "nonpayable",
      "type": "function"
    },
    {
      "inputs": [
        {
          "internalType": "string",
          "name": "_name",
          "type": "string"
        },
        {
          "internalType": "string",
          "name": "_message",
          "type": "string"
        }
      ],
      "name": "showSupport",
      "outputs": [],
      "stateMutability": "payable",
      "type": "function"
    },
    {
      "inputs": [
        {
          "internalType": "uint256",
          "name": "",
          "type": "uint256"
        }
      ],
      "name": "supportMessages",
      "outputs": [
        {
          "internalType": "address",
          "name": "sender",
          "type": "address"
        },
        {
          "internalType": "uint256",
          "name": "timestamp",
          "type": "uint256"
        },
        {
          "internalType": "string",
          "name": "name",
          "type": "string"
        },
        {
          "internalType": "string",
          "name": "message",
          "type": "string"
        }
      ],
      "stateMutability": "view",
      "type": "function"
    },
    {
      "inputs": [
        {
          "internalType": "address payable",
          "name": "newOwner",
          "type": "address"
        }
      ],
      "name": "transferOwnership",
      "outputs": [],
      "stateMutability": "nonpayable",
      "type": "function"
    }
  ],
  "bytecode": "0x608060405234801561001057600080fd5b50336000806101000a81548173ffffffffffffffffffffffffffffffffffffffff021916908373ffffffffffffffffffffffffffffffffffffffff1602179055506112dd806100606000396000f3fe6080604052600436106100705760003560e01c806355f203b51161004e57806355f203b5146100e85780638da5cb5b14610113578063e34fa4701461013e578063f2fde38b1461016957610070565b806313178c66146100755780634311de8f146100915780634e03d195146100a8575b600080fd5b61008f600480360381019061008a9190610a72565b610192565b005b34801561009d57600080fd5b506100a661031a565b005b3480156100b457600080fd5b506100cf60048036038101906100ca9190610ade565b610454565b6040516100df9493929190610d81565b60405180910390f35b3480156100f457600080fd5b506100fd6105c4565b60405161010a9190610e96565b60405180910390f35b34801561011f57600080fd5b506101286105cc565b6040516101359190610d66565b60405180910390f35b34801561014a57600080fd5b506101536105f0565b6040516101609190610dd4565b60405180910390f35b34801561017557600080fd5b50610190600480360381019061018b9190610a49565b6107d3565b005b600034116101d5576040517f08c379a00000000000000000000000000000000000000000000000000000000081526004016101cc90610e16565b60405180910390fd5b600160405180608001604052803373ffffffffffffffffffffffffffffffffffffffff16815260200142815260200184815260200183815250908060018154018082558091505060019003906000526020600020906004020160009091909190915060008201518160000160006101000a81548173ffffffffffffffffffffffffffffffffffffffff021916908373ffffffffffffffffffffffffffffffffffffffff1602179055506020820151816001015560408201518160020190805190602001906102a4929190610914565b5060608201518160030190805190602001906102c1929190610914565b5050503373ffffffffffffffffffffffffffffffffffffffff167f6fe6ba88987a6c87eda2718237e60f0109fddf3ff8915d10370a6d399a1e2a2942848460405161030e93929190610eb1565b60405180910390a25050565b60008054906101000a900473ffffffffffffffffffffffffffffffffffffffff1673ffffffffffffffffffffffffffffffffffffffff163373ffffffffffffffffffffffffffffffffffffffff16146103a8576040517f08c379a000000000000000000000000000000000000000000000000000000000815260040161039f90610e36565b60405180910390fd5b600047116103eb576040517f08c379a00000000000000000000000000000000000000000000000000000000081526004016103e290610e56565b60405180910390fd5b60008054906101000a900473ffffffffffffffffffffffffffffffffffffffff1673ffffffffffffffffffffffffffffffffffffffff166108fc479081150290604051600060405180830381858888f19350505050158015610451573d6000803e3d6000fd5b50565b6001818154811061046457600080fd5b90600052602060002090600402016000915090508060000160009054906101000a900473ffffffffffffffffffffffffffffffffffffffff16908060010154908060020180546104b390611042565b80601f01602080910402602001604051908101604052809291908181526020018280546104df90611042565b801561052c5780601f106105015761010080835404028352916020019161052c565b820191906000526020600020905b81548152906001019060200180831161050f57829003601f168201915b50505050509080600301805461054190611042565b80601f016020809104026020016040519081016040528092919081815260200182805461056d90611042565b80156105ba5780601f1061058f576101008083540402835291602001916105ba565b820191906000526020600020905b81548152906001019060200180831161059d57829003601f168201915b5050505050905084565b600047905090565b60008054906101000a900473ffffffffffffffffffffffffffffffffffffffff1681565b60606001805480602002602001604051908101604052809291908181526020016000905b828210156107ca57838290600052602060002090600402016040518060800160405290816000820160009054906101000a900473ffffffffffffffffffffffffffffffffffffffff1673ffffffffffffffffffffffffffffffffffffffff1673ffffffffffffffffffffffffffffffffffffffff168152602001600182015481526020016002820180546106a790611042565b80601f01602080910402602001604051908101604052809291908181526020018280546106d390611042565b80156107205780601f106106f557610100808354040283529160200191610720565b820191906000526020600020905b81548152906001019060200180831161070357829003601f168201915b5050505050815260200160038201805461073990611042565b80601f016020809104026020016040519081016040528092919081815260200182805461076590611042565b80156107b25780601f10610787576101008083540402835291602001916107b2565b820191906000526020600020905b81548152906001019060200180831161079557829003601f168201915b50505050508152505081526020019060010190610614565b50505050905090565b60008054906101000a900473ffffffffffffffffffffffffffffffffffffffff1673ffffffffffffffffffffffffffffffffffffffff163373ffffffffffffffffffffffffffffffffffffffff1614610861576040517f08c379a000000000000000000000000000000000000000000000000000000000815260040161085890610e76565b60405180910390fd5b600073ffffffffffffffffffffffffffffffffffffffff168173ffffffffffffffffffffffffffffffffffffffff1614156108d1576040517f08c379a00000000000000000000000000000000000000000000000000000000081526004016108c890610df6565b60405180910390fd5b806000806101000a81548173ffffffffffffffffffffffffffffffffffffffff021916908373ffffffffffffffffffffffffffffffffffffffff16021790555050565b82805461092090611042565b90600052602060002090601f0160209004810192826109425760008555610989565b82601f1061095b57805160ff1916838001178555610989565b82800160010185558215610989579182015b8281111561098857825182559160200191906001019061096d565b5b509050610996919061099a565b5090565b5b808211156109b357600081600090555060010161099b565b5090565b60006109ca6109c584610f1b565b610ef6565b9050828152602081018484840111156109e257600080fd5b6109ed848285611000565b509392505050565b600081359050610a0481611279565b92915050565b600082601f830112610a1b57600080fd5b8135610a2b8482602086016109b7565b91505092915050565b600081359050610a4381611290565b92915050565b600060208284031215610a5b57600080fd5b6000610a69848285016109f5565b91505092915050565b60008060408385031215610a8557600080fd5b600083013567ffffffffffffffff811115610a9f57600080fd5b610aab85828601610a0a565b925050602083013567ffffffffffffffff811115610ac857600080fd5b610ad485828601610a0a565b9150509250929050565b600060208284031215610af057600080fd5b6000610afe84828501610a34565b91505092915050565b6000610b138383610cde565b905092915050565b610b2481610fc4565b82525050565b610b3381610fb2565b82525050565b610b4281610fb2565b82525050565b6000610b5382610f5c565b610b5d8185610f7f565b935083602082028501610b6f85610f4c565b8060005b85811015610bab5784840389528151610b8c8582610b07565b9450610b9783610f72565b925060208a01995050600181019050610b73565b50829750879550505050505092915050565b6000610bc882610f67565b610bd28185610f90565b9350610be281856020860161100f565b610beb81611103565b840191505092915050565b6000610c0182610f67565b610c0b8185610fa1565b9350610c1b81856020860161100f565b610c2481611103565b840191505092915050565b6000610c3c601a83610fa1565b9150610c4782611114565b602082019050919050565b6000610c5f602383610fa1565b9150610c6a8261113d565b604082019050919050565b6000610c82603183610fa1565b9150610c8d8261118c565b604082019050919050565b6000610ca5602283610fa1565b9150610cb0826111db565b604082019050919050565b6000610cc8602e83610fa1565b9150610cd38261122a565b604082019050919050565b6000608083016000830151610cf66000860182610b2a565b506020830151610d096020860182610d48565b5060408301518482036040860152610d218282610bbd565b91505060608301518482036060860152610d3b8282610bbd565b9150508091505092915050565b610d5181610ff6565b82525050565b610d6081610ff6565b82525050565b6000602082019050610d7b6000830184610b1b565b92915050565b6000608082019050610d966000830187610b39565b610da36020830186610d57565b8181036040830152610db58185610bf6565b90508181036060830152610dc98184610bf6565b905095945050505050565b60006020820190508181036000830152610dee8184610b48565b905092915050565b60006020820190508181036000830152610e0f81610c2f565b9050919050565b60006020820190508181036000830152610e2f81610c52565b9050919050565b60006020820190508181036000830152610e4f81610c75565b9050919050565b60006020820190508181036000830152610e6f81610c98565b9050919050565b60006020820190508181036000830152610e8f81610cbb565b9050919050565b6000602082019050610eab6000830184610d57565b92915050565b6000606082019050610ec66000830186610d57565b8181036020830152610ed88185610bf6565b90508181036040830152610eec8184610bf6565b9050949350505050565b6000610f00610f11565b9050610f0c8282611074565b919050565b6000604051905090565b600067ffffffffffffffff821115610f3657610f356110d4565b5b610f3f82611103565b9050602081019050919050565b6000819050602082019050919050565b600081519050919050565b600081519050919050565b6000602082019050919050565b600082825260208201905092915050565b600082825260208201905092915050565b600082825260208201905092915050565b6000610fbd82610fd6565b9050919050565b6000610fcf82610fd6565b9050919050565b600073ffffffffffffffffffffffffffffffffffffffff82169050919050565b6000819050919050565b82818337600083830152505050565b60005b8381101561102d578082015181840152602081019050611012565b8381111561103c576000848401525b50505050565b6000600282049050600182168061105a57607f821691505b6020821081141561106e5761106d6110a5565b5b50919050565b61107d82611103565b810181811067ffffffffffffffff8211171561109c5761109b6110d4565b5b80604052505050565b7f4e487b7100000000000000000000000000000000000000000000000000000000600052602260045260246000fd5b7f4e487b7100000000000000000000000000000000000000000000000000000000600052604160045260246000fd5b6000601f19601f8301169050919050565b7f496e76616c6964206e6577206f776e657220616464726573732e000000000000600082015250565b7f596f752063616e6e6f742073686f7720737570706f727420776974682030204560008201527f5448210000000000000000000000000000000000000000000000000000000000602082015250565b7f506c65617365206f6e6c792074686520636f6e7472616374206f776e6572206360008201527f616e20776974686472617720746970732e000000000000000000000000000000602082015250565b7f4e6f2066756e647320617661696c61626c6520666f722077697468647261776160008201527f6c2e000000000000000000000000000000000000000000000000000000000000602082015250565b7f4f6e6c79207468652063757272656e74206f776e65722063616e207472616e7360008201527f666572206f776e6572736869702e000000000000000000000000000000000000602082015250565b61128281610fc4565b811461128d57600080fd5b50565b61129981610ff6565b81146112a457600080fd5b5056fea264697066735822122099fba6dc02967de318acdedd5c2601885014b85d697f5a90857bb8fb118bbf8b64736f6c63430008040033",
  "linkReferences": {},
  "deployedLinkReferences": {}
}